:020000040000FA
:020000001028C6
:040002000034003492
:08000800A2000308A3000A088E
:10001000A40024088A0023088300A20E220E0900EF
:10002000831287010730990083168501C830870045
:100030008030990083120230A0007D202130A00B77
:100040001D28A0008E20F030A00B2228A00039200F
:10005000F030A00B2728A00039200930A00B2C2855
:10006000A0008E200230A00B312800008E2002302C
:100070001C28043087000530A100A10B3D28063064
:100080000000000087000430A100A10B45280000FB
:10009000373087000430A100A10B4C280000363017
:1000A00087000430A100A10B5328000027308700EF
:1000B0000430A100A10B5A2800002630870004302C
:1000C000A100A10B61280000173087000430A100B7
:1000D000A10B68280000163087000430A100A10B96
:1000E0006F280000073087000430A100A10B76289C
:1000F000000006308700000008000030870005304F
:10010000A100A10B812802300000000087002A30E6
:10011000A100A10B8928000000000800043087001E
:100120000530A100A10B92280630000000008700D6
:0E0130002A30A100A10B9A2800000000080050
:02400E00E2309E
:00000001FF
