:020000040000FA
:020000001028C6
:040002000034003492
:08000800BD000308BE000A0858
:10001000BF003F088A003E088300BD0E3D0E090068
:10002000831287010730990083168501C830870045
:100030008030990083121230AB003430AE0056305D
:10004000B100F800B4009A30B700BC30BA003230CA
:10005000A2002B3084000230A000D8202130A00B59
:100060002D28A000E9201130A00B3228A000E920A3
:100070000330A00B3728A000FA204030A00B3C280A
:10008000A00085200B30A00B4128A000FA204030B2
:10009000A00B4628A00085200B30A00B4B28A00009
:1000A000FA204030A00B5028A00085200B30A00B78
:1000B0005528A000FA204030A00B5A28A000852027
:1000C0000B30A00B5F28A000FA204030A00B642862
:1000D000A00085200B30A00B6928A000FA2040303A
:1000E000A00B6E28A00085201530A00B7328A0005F
:1000F000E9200930A00B7828A000E9200230A00BED
:100100007D280000582102302C280430870005305B
:10011000A100A10B892806300000000087000430F0
:10012000A100A10B912800000000230887000330E4
:10013000A100A10B9928063087002408870003300E
:10014000A100A10BA12806308700250887000330F5
:10015000A100A10BA92806308700260887000330DC
:10016000A100A10BB12806308700270887000330C3
:10017000A100A10BB92806308700280887000330AA
:10018000A100A10BC1280630870029088700033091
:10019000A100A10BC928063087002A088700033078
:1001A000A100A10BD1280630870000000000080044
:1001B000003087000530A100A10BDC2802300000D0
:1001C000000087002A30A100A10BE42800000000F5
:1001D0000800043087000530A100A10BED2806308F
:1001E0000000000087002A30A100A10BF5280000C4
:1001F00000000800043087000530A100A10BFE2894
:1002000006300000000087002008013A03190E297B
:100210002930A100A10B0A290000080006300018AF
:1002200010388018203800190138A30006308019D2
:100230001038001A2038801A0138A4000630001B3C
:100240001038801B2038840A00180138A5000630B9
:10025000801810380019203880190138A60006309F
:10026000001A1038801A2038001B0138A700063009
:10027000801B1038840A0018203880180138A80024
:1002800006300019103880192038001A0138A900EA
:100290000630801A1038001B2038801B0138AA0055
:1002A000840A1230A100A10B5329000000000800AD
:1002B000043087000530A100A10B5C290630000046
:1002C00000008700A20BCD290310AD0CAC0CAB0CC9
:1002D000031C6F29D730AD06AC06AB0674290000AD
:1002E00000000000000000000310B00CAF0CAE0CCA
:1002F000031C7F29D730B006AF06AE068429000064
:1003000000000000000000000310B30CB20CB10CA0
:10031000031C8F29D730B306B206B106942900001A
:1003200000000000000000000310B60CB50CB40C77
:10033000031C9F29D730B606B506B406A4290000D1
:1003400000000000000000000310B90CB80CB70C4E
:10035000031CAF29D730B906B806B706B429000088
:1003600000000000000000000310BC0CBB0CBA0C25
:10037000031CBF29D730BC06BB06BA06C42900003F
:1003800000000000000000002B080F39163EA200FC
:10039000000000000E30A100D02900002830A1008C
:0E03A000A10BD029000000002B3084000800C3
:02400E00E2309E
:00000001FF
